:020000040800F2
:10000000F0060020290200082F1E00083D1D0008F0
:100010002D1E0008310500085D21000800000000C9
:10002000000000000000000000000000E5200008C3
:100030003305000800000000311E0008E72000081A
:10004000430200084302000843020008430200087C
:10005000430200084302000843020008430200086C
:10006000430200084302000843020008430200085C
:10007000430200084302000843020008430200084C
:10008000430200084302000843020008430200083C
:10009000430200084302000843020008430200082C
:1000A000430200084302000843020008430200081C
:1000B000430200084302000843020008430200080C
:1000C00043020008430200084302000843020008FC
:1000D00043020008430200084302000843020008EC
:1000E00043020008430200084302000843020008DC
:1000F00043020008430200084302000843020008CC
:1001000043020008430200084302000843020008BB
:1001100043020008430200084302000843020008AB
:10012000430200084302000843020008430200089B
:10013000430200084302000843020008430200088B
:10014000430200084302000843020008430200087B
:10015000430200084302000843020008430200086B
:10016000430200084302000843020008430200085B
:100170004302000843020008430200080000000098
:10018000430200084302000800F002F800F03CF8C7
:100190000AA090E8000C82448344AAF10107DA45E2
:1001A00001D100F031F8AFF2090EBAE80F0013F0F8
:1001B000010F18BFFB1A43F001031847FC2500008C
:1001C0001C260000103A24BF78C878C1FAD852071C
:1001D00024BF30C830C144BF04680C6070470000C1
:1001E0000023002400250026103A28BF78C1FBD840
:1001F000520728BF30C148BF0B6070471FB502F0DF
:10020000B1FA1FBD10B510BD00F058F81146FFF748
:10021000F5FF01F0B5FF00F076F803B4FFF7F2FF49
:1002200003BC00F07DF800000948804709480047FA
:10023000FEE7FEE7FEE7FEE7FEE7FEE7FEE7FEE796
:10024000FEE7FEE704480549054A064B70470000F3
:100250004D21000889010008F0000020F006002070
:10026000F0020020F00200204FF0000200B513461B
:1002700094469646203922BFA0E80C50A0E80C50C6
:10028000B1F12001BFF4F7AF090728BFA0E80C5077
:1002900048BF0CC05DF804EB890028BF40F8042B70
:1002A00008BF704748BF20F8022B11F0804F18BFDD
:1002B00000F8012B7047704770477047754600F093
:1002C0002BF8AE4605006946534620F007008546E8
:1002D00018B020B5FFF7B6FFBDE820404FF000068C
:1002E0004FF000074FF000084FF0000B21F007011E
:1002F000AC46ACE8C009ACE8C009ACE8C009ACE861
:10030000C0098D46704710B50446AFF30080204603
:10031000BDE81040FFF781BF004870478C00002007
:1003200001491820ABBEFEE726000200704700001E
:100330002DE9F041044600270D46006801F009FD53
:100340000646206801F001FD30435DD02068C16899
:100350002E4E890105D5617E012902D1217E012918
:100360000BD0022D1DD0206801F0F3FCB8B120683D
:100370008168C1F3400169B111E00125244902E01F
:100380008F4232D27F1C0268D2435206F8D44021F9
:100390000160E8E78168314041F010018160012D82
:1003A00011D0206801F0D1FC48B120688168C1F308
:1003B000400121B98168314041F020018160022D66
:1003C00008D0032D04D0042500F088FE064617E06F
:1003D0000C25F9E70825F7E700F080FE801B0528CB
:1003E0000ED92068806828420AD0606D40F0100065
:1003F0006065A06D40F00100A0650120BDE8F081BE
:10040000206880682842E7D10020F7E7C0FFFF7F1F
:10041000000040A370B50446006881688268C1F39B
:10042000400112F0010F28D039BB816801F00D01A5
:10043000012914D18168124A1140891C8160216808
:100440000320086000F04AFE054612E000F046FE78
:10045000401B02280DD920688068C00709D0606D54
:1004600040F010006065A06D40F00100A065012023
:1004700070BD20688068C007E8D1002070BD000012
:10048000C0FFFF7FF8B50446002000902068816817
:1004900011F0010F41D18168214A11422ED18168AA
:1004A000D5432940491C81601E48806800F0E070F7
:1004B00000020DD51C481D490068B0FBF1F0401C3E
:1004C00000EB4000800000E0401E00900028FBD1BF
:1004D00000F004FE06461BE0816811F0010F03D115
:1004E00081682940491C816000F0F8FD801B0228CA
:1004F0000ED920680068C043C00709D0606D40F085
:1005000010006065A06D40F00100A0650120F8BDFD
:1005100020680168C943C907DED10020F8BD00008A
:100520003F0000800003045024000020400D030021
:10053000FEE7704772B6FEE72DE9F047044690F8F3
:1005400050009AB00E464FF00009012816D0012045
:1005500084F85000002515951695324F2068B84252
:1005600010D1DFF8C480CDF80080404601F0F5FBE3
:100570008246206801F0F1FB60B10EE002201AB063
:10058000BDE8F087606D40F02000606584F8505051
:100590000120F4E7BAF1000F0AD0606D40F02000AE
:1005A00060654FF0010900BF84F850504846E6E707
:1005B0001E4831681E4A0029816840F61F7321F4E5
:1005C00060411CD094F830C041EA4C31D6F804C0E8
:1005D00041EA0C018160B968D8F8087001F00101A6
:1005E00007F001079268394302F001021143DBD1A1
:1005F000B2683168114382689A4311430FE0816009
:10060000B968D8F8086001F0010106F001069268A7
:10061000314302F001021143C6D1816899438160E0
:10062000C2E7000000000450000104500003045021
:10063000000204502DE9F84F00270446009790F877
:100640005000DFF8B8930D46B846012811D00126B6
:1006500084F85060206801F07CFB60B1606D40F070
:10066000200060655FF0010784F85080384600F094
:10067000DDB90220FBE76868052808D8022825D0E4
:10068000032825D0042825D0052825D00620216858
:100690000C2303EA901319442A680B6B00F01F0027
:1006A0004FF01F0C0CFA00FCC2F3846223EA0C0327
:1006B000824013430B63206801F04BFB82462068A5
:1006C00001F043FB5AEA000009D09AE00C20DEE773
:1006D0001220DCE71820DAE74FF48070D7E7AA6829
:1006E0002968206801F045FB20686969C268C2F387
:1006F000C102520091402A69042A0FD000EB820007
:100700002B68026EDFF8F8C203F0F84302EA0C022D
:100710000B431A4342F00041016672E0002101F0F0
:100720000EFB400320684FF0000172D001F007FB80
:1007300090FAA0F0B0FA80F1286842036ED090FAE7
:10074000A0F0B0FA80F0814204D100221146206866
:1007500001F01EFB0121206801F0F1FA400320683E
:100760004FF001015DD001F0EAFA90FAA0F0B0FA82
:1007700080F12868420359D090FAA0F0B0FA80F0D6
:10078000814204D100220121206801F001FB0221F5
:10079000206801F0D4FA400320684FF0020148D0ED
:1007A00001F0CDFA90FAA0F0B0FA80F12868420387
:1007B00044D090FAA0F0B0FA80F0814204D1002237
:1007C0000221206801F0E4FA0321206801F0B7FA61
:1007D000400320684FF0030133D001F0B0FA90FAE3
:1007E000A0F0B0FA80F1286842032FD090FAA0F070
:1007F000B0FA80F0814204D100220321206801F088
:10080000C7FA2068816811F0010F22D0ABE000E048
:1008100004E001F094FAC0F384618DE7C0F38460D2
:1008200091E701F08CFAC0F38461A2E7C0F3846021
:10083000A6E701F084FAC0F38461B7E7C0F38460EF
:10084000BBE701F07CFAC0F38461CCE7C0F38460BD
:10085000D0E72A7B296850F8B03FC1F3120C23EA95
:100860000C0302F0180C674A22FA0CF20A401343F8
:100870000360E968494576D1286841031BD090FAA6
:10088000A0F1B1FA81F1491C01F01F0109294FEAD9
:10089000403131D8002911D090FAA0F1B1FA81F19C
:1008A00001F1010101F01F0106FA01F609D100BFB3
:1008B000C0F3846109E0C0F38461E4E7C0F38461BC
:1008C000EEE790FAA0F1B1FA81F101F1010101F036
:1008D0001F0146EA816102D1C0F3846003E090FA0F
:1008E000A0F0B0FA80F000F1010000F01F0000EB72
:1008F000400041EA005132E000290ED090FAA0F108
:10090000B1FA81F101F1010101F01F0106FA01F6CE
:1009100006D100BFC0F3846106E0C0F38461F1E753
:1009200090FAA0F1B1FA81F101F1010101F01F018A
:1009300046EA816102D1C0F3846003E090FAA0F03E
:10094000B0FA80F000F1010000F01F002E4A00EB29
:10095000400002EB005041EA000141F00071AA683A
:10096000206801F006FA29482A6802423FF47CAE6A
:1009700027488168274E284B284D01F0E071B2428C
:100980001DD10E021BD422689A4202D0AA427FF4E3
:100990006BAE826841F4000122F0E0720A4382608B
:1009A0001F4820490068B0FBF1F0401C00EB4000FC
:1009B000800000E0401E00900028FBD154E61A4E53
:1009C000B24209D1CE0107D422689A4201D0AA428C
:1009D000F4D141F080710AE06FF00045EA42EDD1B8
:1009E0004A02EBD422689A42E8D141F4800182683D
:1009F00022F0E0720A43826036E6000000007F4089
:100A000000F0FF03FFFF0700000020FE0000088049
:100A100000030450000052C70000045000020450BC
:100A200024000020400D0300000084CB18BCBDE86A
:100A3000E08F0068006C7047F8B54FF000050400C7
:100A40002E46009502D0606D10B107E00120F8BD80
:100A5000204600F0D3F8A66584F8506020688168CD
:100A6000C1F3407119B181685A4A11408160206810
:100A70008168C1F3007189B98168574A114041F01A
:100A800080518160554856490068B0FBF1F0400044
:100A9000801C00E0401E00900028FBD12068816887
:100AA000C1F3007141B9616D41F010016165A16D43
:100AB00041F00101A165012501F04BF9616DC90605
:100AC00000D430B1606D40F010006065012528460B
:100AD000F8BD606D20F4807040F002006065206811
:100AE000806810F0010F15D13E4880683E4900F043
:100AF0000100896801F0010108433C49896801F05F
:100B00000101084306D13A4960688A6822F47C12E0
:100B100002438A60E168606B627E0843A16841EA33
:100B20004231084394F8201040EA0140012904D1E1
:100B3000A18C304A02EB41410843A16A29B101F47A
:100B40007071E26A014342EA01002268D1682A4BCF
:100B500019400143D160206801F0F7F8A8B9207E60
:100B600094F83010800340EA41012068C26844F2E2
:100B700002039A430A43C26094F8380001280CD05B
:100B80002068016921F001010161206901282068C4
:100B9000016B21F00F0111D013E0D4E90F010843DC
:100BA000D4E911121143084321680A6940F2FC7329
:100BB0009A43104340F001000861E6E7E269521EE3
:100BC00011430163606D20F0020040F00100606598
:100BD0007DE70000C0FFFF5FC0FFFF7F2400002013
:100BE000400D0300000004500001045000020450B6
:100BF000000304500000FEFF07C0F0FF10B5A8B0CE
:100C00000446142122A8FFF72FFB88216846FFF72E
:100C10002BFB1B492068884230D14FF48040009064
:100C2000800301241E900820CDE902400720049093
:100C30000220019405900690C0050790684600F0D8
:100C400011FB08B1FFF776FC0E48C16C41F400516E
:100C5000C164C16C01F400512791C16C41F00401E1
:100C6000C164C06C22A900F0040027900B20CDE9DC
:100C7000224000202490044800F020F928B010BD44
:100C80000000045000100240000800482DE9F04127
:100C900004463A480F46816801F01F05616908293A
:100CA0000FD085B1052D0ED0092D0CD0806800F431
:100CB000604060B1606D40F0200060650120BDE8DB
:100CC000F081082604E02068C068C007F1E7042628
:100CD00000F004FA804615E0781C13D000F0FEF90D
:100CE000A0EB0800B84200D867B92068006830421D
:100CF00008D1606D40F004006065002084F8500069
:100D00000320DCE7206800683042E5D0606D40F4E5
:100D100000706065206801F024F880B1607E70B9D1
:100D20002068006800070AD5606D20F48070606557
:100D3000606DC00403D4606D40F001006065104A2E
:100D400020681049904201D10B4600E003468342DF
:100D500010D07DB1052D0DD0092D0BD0904200D0C3
:100D60000146C968082E07D0490401D40C2101604E
:100D70000020A4E7C168F5E70821F8E70003045064
:100D800000010450000004502DE9F04104463748AA
:100D9000806800F01F05206800F0DBFF18B1022119
:100DA0000846BDE8F08194F8500001280CD00120DD
:100DB00084F850002046FFF765FB01004FF0000368
:100DC00004D084F85030EBE70220EAE7606D40F68B
:100DD0000162904340F480706065254A2068254E8A
:100DE000904201D1374600E00746874200D01DB946
:100DF000676D27F480176765676DFF0404D5A76DDD
:100E000027F00607A76500E0A3651C27076084F8A4
:100E100050302068904201D1334600E003468342BF
:100E200015D0A5B1052D12D0092D10D0636D43F456
:100E300080136365904200D13046C0688001AFD511
:100E4000606D20F4005040F480506065A8E7C268EF
:100E5000920105D5626D22F4005242F4805262651F
:100E60008268054B1A40121D826099E70003045006
:100E70000001045000000450C0FFFF7F10B504467D
:100E800090F85000012808D0012084F85000032178
:100E90002046FFF74DFA10B10BE0022010BD2046AE
:100EA000FFF7B8FA28B9616D21F4885141F00101CA
:100EB0006165002184F8501010BD00002DE9F04F4D
:100EC000DFF8EC9100220127A9F1040B85B003257E
:100ED0004FF00F0C09F1040AABF1040EE0E000BF83
:100EE00007FA02F416EA04037ED00E7906F0030630
:100EF000012E01D0022E1FD186680096560005FAF9
:100F000006F80496009E26EA08060096D1F80C80A2
:100F1000049E08FA06F8009E48EA0608C0F8088011
:100F2000466891F80480A643C8F3001808FA02F84E
:100F300048EA0608C0F80480D1F804806FEA080681
:100F4000B6070AD1C66AA643C8F3C0049440344326
:100F5000C4620C79E443A4070AD0C4684FEA42088B
:100F600005FA08F6B4438E6806FA08F62643C6600A
:100F70000C7904F00304022C11D1D40800EB840690
:100F80000296D6F820805407E60E0CFA06F428EAFA
:100F900004080C69B440029E44EA08043462046800
:100FA0005600029605FA06F6B4430E7906F00308D9
:100FB000029E08FA06F848EA0408C0F800804C6867
:100FC00014F4403F6BD03B4C266E46F0010626667B
:100FD000246E22F0030604F001040094364C3444DD
:100FE0000294A468960700E059E04FEA16780CFADC
:100FF00008F6B443B0F1904F04D0304EB04203D164
:1010000001261BE0002619E02D4EB04201D1022638
:1010100014E02C4EB04201D103260FE02A4EB0421C
:1010200001D104260AE0294EB04201D1052605E08F
:10103000274EB04201D1062600E0072606FA08F640
:101040002643029CA660D9F800404E46D1F80480A1
:101050009C435FEAC82800D51C433460DAF800409E
:101060005646D1F804809C435FEA882800D51C438B
:101070003460DBF800405E46D1F804809C435FEAB0
:10108000883800D51C433460DEF800407646D1F83D
:1010900004809C435FEAC83800D51C433460521C6E
:1010A0000B681E46D3407FF41BAF05B000F012B8AA
:1010B0000804014000100240000001400004004804
:1010C00000080048000C00480010004800140048C8
:1010D0000018004830BCBDE8C08F0000014880689F
:1010E000704700001800002002488168027811440F
:1010F000816070471800002010B50024032000F024
:1011000063F80F2000F008F808B1012401E000F0B6
:1011100025F8204610BD000070B50E4E054600248F
:10112000307898B14FF47A71B1FBF0F00A49096850
:10113000B1FBF0F000F0EEFD40B9102D06D2002218
:101140002946501E00F020F8756000E0012420467A
:1011500070BD00001800002024000020094808B5D8
:10116000016E41F001010166016E01F00101009183
:10117000816D41F080518165806D00F0805000905C
:1011800008BD000000100240F0B40E4B1B680C4676
:10119000C3F30223C3F10705042D00D90425191D4B
:1011A000072901D2002300E0DB1E012606FA05F123
:1011B000491E214099409E40761E16403143F0BCA6
:1011C00000F0CDBF0CED00E0064900F00702086812
:1011D0004FF6FF03184040EA0220034A104308601C
:1011E000704700000CED00E00000FA051649B0F56C
:1011F000007F0868C0F3412009D0022805D00868A4
:1012000020F4C06040F4806008600020704701282E
:10121000FBD0086820F4C06040F4007008600B4800
:101220003222006850430A4AB0FBF2F0401C00E052
:10123000401E4A69520501D50028F9D14869400588
:10124000E3D5032070470000007000402400002018
:1012500040420F000248006800F4C0607047000080
:10126000007000402DE9F84F044600270088E54D46
:101270003E46010504F1200B1DD5606E78B1B0F536
:10128000800F11D0B0F5000F04D0B0F5400F22D080
:1012900001270FE0E86840F48030E8601BE000219F
:1012A000201D00F0C7FD03E00021584600F058FE65
:1012B000070010D03E462088C00426D5A06EC0B1DD
:1012C000B0F1807F1AD0B0F1007F0DD0B0F1407F37
:1012D00019D0012718E0D5F88800616E20F440008D
:1012E0000843C5F88800E6E7E86840F48030E86025
:1012F00009E00021201D00F09DFD03E0002158467B
:1013000000F02EFE0746F7B13E46206880033AD52E
:10131000A86D4FF00008C00009D4A86D40F08050BF
:10132000A865A86D4FF0010800F080500090DFF82C
:10133000D8A2DAF8001041F48071CAF80010FFF763
:10134000CDFE814610E0D5F88800A16E20F04070F7
:101350000843C5F88800D8E7FFF7C0FEA0EB0900F6
:10136000022801D9032705E0DAF80000C005F3D50B
:10137000002F7CD04FEA0706B8F1000F03D0A86D0C
:1013800020F08050A8652078C00707D0D5F88800E5
:10139000A16B20F003000843C5F88800207880077F
:1013A00007D5D5F88800E16B20F00C000843C5F89C
:1013B00088002078400707D5D5F88800216C20F0F8
:1013C00030000843C5F888002078000707D5D5F815
:1013D0008800616C20F0C0000843C5F888002078C0
:1013E000C00607D5D5F88800A16C20F440700843EA
:1013F000C5F888002078800607D5D5F88800E16C0C
:1014000020F440600843C5F888002088800507D58F
:10141000D5F88800E16D20F440200843C5F8880025
:101420002088400507D5D5F88800216E20F44010AB
:101430000843C5F888002078400607D5D5F888000D
:10144000216D20F440500843C5F88800207800063C
:1014500007D5D5F88800616D20F440400843C5F8F1
:1014600088002088C00509D5D5F8880000E01CE078
:10147000A16D20F440300843C5F8880020884FF063
:10148000006780044FF080684FD5D5F88800E16E82
:1014900020F040600843C5F88800E06EB8423CD1B7
:1014A000E86840F48010E8603FE0D5F8900010F460
:1014B000407015D0D4F88410814211D0D5F8900036
:1014C000D5F8901020F4407041F48031C5F89010A8
:1014D000D5F8901021F48031C5F89010C5F890002F
:1014E000C00710D0FFF7FAFD074641F2883906E041
:1014F000FFF7F4FDC11B494501D903263CE7D5F8A8
:1015000090008007F4D5D5F89000D4F8841020F42A
:1015100040700843C5F890002EE7404505D10121F1
:10152000201D00F087FC00B106462068000317D597
:10153000D5F88800216F20F040600843C5F8880086
:10154000206FB84204D1E86840F48010E86007E0FA
:10155000404505D10121201D00F06CFC00B106467C
:101560002068400317D5D5F88800616F20F04060EF
:101570000843C5F88800606FB84204D1E86840F4B9
:101580008010E86007E0404505D10121201D00F0F2
:1015900051FC00B10646208840041AD5D5F88800D1
:1015A000A16F20F040500843C5F88800A06FB0F14B
:1015B000805F03D0B0F1005F05D00AE00221201D5A
:1015C00000F038FC03E00221584600F0C9FC00B1ED
:1015D00006462088000407D5D5F88800E16F20F082
:1015E00080400843C5F888002068C00307D555F837
:1015F000880FD4F8801020F000400843286030465F
:1016000000F004B8001002400070004018BCBDE8B3
:10161000E08F00002DE9F0470F4605006BD0494EE2
:10162000306800F00700B84209D2306820F00700A7
:1016300038433060306800F00700B8425BD128784A
:10164000414C80070AD5A868A16801F0F0018842E2
:1016500004D9A16821F0F0010143A1602878C007F6
:101660002CD06868032811D0022812D0216898B1C4
:10167000490500293FDAA16821F003010143A16077
:10168000FFF72CFD804641F2883910E0216889017E
:10169000EFE721688903ECE78907EAE7FFF71EFD1A
:1016A000A0EB0801494502D90320BDE8F087A068F6
:1016B000696800F00C00B0EB810FEFD1287880074B
:1016C0000AD5A868A16801F0F001884204D2A16897
:1016D00021F0F0010143A160306800F00700B8423A
:1016E0000BD9306820F0070038433060306800F0D4
:1016F0000700B84201D00120D7E72878400705D578
:10170000A068E96820F4E0600843A060287800073A
:1017100006D5A068296920F4605040EAC100A060A5
:1017200000F01AF8A168094AC1F30311515C01F0F5
:101730001F01C8400649086006480068BDE8F04738
:10174000FFF7EABC002002400010024078270008A2
:10175000240000201C00002070B5254900231846F5
:101760008A68CC6812F00C0204F00306214C4FEAA0
:10177000640509D00C2A05D0042A32D0082A00D1E9
:10178000284670BD012E10D10B681B0704D4D1F878
:101790009430C3F3032302E00B68C3F30313164E24
:1017A00056F82330DAB10C2AEBD1C86800F00300F8
:1017B000022818D0032818D01846CA68CB68C2F38C
:1017C0000212C3F306234343521CB3FBF2F2C86870
:1017D000C0F34160401C4000B2FBF0F070BD184601
:1017E00070BD204670BD2046E7E72846E5E70000CB
:1017F000001002400024F400882700082DE9F84377
:1018000004006FD0FD4DA86800F00C06E86800F0F9
:1018100003072078C00664D576B10C2E01D1012FC4
:101820000AD0A069002828687AD040F0010028601A
:10183000FFF754FC80465DE02868800702D5A06968
:101840000028DED0216A2868000703D5286800F048
:10185000F00004E0D5F89400F02202EA1010814272
:1018600016D9084600F000FC00283BD1286840F05B
:10187000080028602868216A20F0F00008432860EA
:101880006868E16920F47F4040EA0120686016E062
:10189000286840F0080028602868216A20F0F000DD
:1018A000084328606868E16920F47F4040EA01202D
:1018B000686026B9206A00F0D7FB0028D5D1FFF771
:1018C0004BFFA968CE4AC1F30311515C01F01F011F
:1018D000C840CC490860CC480068FFF71DFC0028D0
:1018E0007ED12EE0CAE000BFFFF7F8FBA0EB0800B6
:1018F000022876D828688007F6D5286840F00800C6
:1019000028602868216A20F0F00008432860686891
:10191000E16920F47F4040EA0120686011E0FFE7C0
:1019200020F001002860FFF7D9FB804606E000BFE9
:10193000FFF7D4FBA0EB08000228DAD8286880075C
:10194000F6D42078C00740D0082E18D00C2E01D134
:10195000032F14D06068B0F5803F17D0B0F5A02FEA
:10196000286817D020F480302860286820F4802070
:1019700028606068E0B1FFF7B1FB804614E028689A
:10198000800322D56068002878D01EE0286840F4E3
:101990008030EDE740F480202860F7E7FFF79EFBFA
:1019A000A0EB08006428A4D828688003F6D50CE0D2
:1019B000FFF794FB804605E0FFF790FBA0EB0800E3
:1019C000642896D828688003F6D4207880073BD511
:1019D000042E11D00C2E01D1022F0DD0E06801E0B1
:1019E00086E1D6E0002828681ED040F48070286088
:1019F000FFF774FB07460CE0286840050CD5E0684B
:101A00000028C1D008E000BFFFF768FBC01B022818
:101A100093D828684005F7D56868217C20F0F850F5
:101A200040EA016068600FE020F480702860FFF7F2
:101A300055FB074605E000BFFFF750FBC01B02281F
:101A4000B1D828684005F7D42078000729D5606907
:101A50000028D5F8940012D040F00100C5F8940099
:101A6000FFF73CFB074604E0FFF738FBC01B0228EA
:101A700099D8D5F894008007F6D512E000E120F05F
:101A80000100C5F89400FFF729FB074605E000BFF9
:101A9000FFF724FBC01B02287BD8D5F894008007F1
:101AA000F6D42078400766D5A86D0027C00008D47A
:101AB000A86D40F08050A865A86D012700F0805007
:101AC000009052480168C90512D40168814641F46A
:101AD00080710160FFF702FB804605E0FFF7FEFA28
:101AE000A0EB0800022854D8D9F80000C005F5D5AD
:101AF000A068012816D00528D5F8900017D020F04E
:101B00000100C5F89000D5F8900020F0040000BF57
:101B1000C5F89000A06841F28839C0B1FFF7DEFA3D
:101B200080460FE0D5F8900040F00100F0E740F06B
:101B30000400C5F89000F5E7FFF7D0FAA0EB080124
:101B4000494526D8D5F890008007F5D50EE0FFF777
:101B5000C5FA804606E000BFFFF7C0FAA0EB080117
:101B6000494516D8D5F890008007F5D41FB1A86D67
:101B700020F08050A865A06AF0B302280AD00C2E8D
:101B80007ED0286820F080702860FFF7A7FA04460E
:101B9000B0E0ACE0E868E26A00F00301914229D1CC
:101BA000216B00F0700209011039914222D1626B61
:101BB00000F4FE41B1EB022F1CD1A26B00F4003106
:101BC000072A01D0012200E00022914212D1A18F08
:101BD00000F4C00249084905A1F50011914209D15C
:101BE00094F8401000F0C06049084906A1F1007166
:101BF00081425ED00C2E0BE072E00000001002402B
:101C000078270008240000201C00002000700040FD
:101C100079D02868400176D42868C00073D4286839
:101C200020F080702860FFF759FA064605E000BFF3
:101C3000FFF754FA801B022859D828688001F7D48E
:101C4000D4E90B016FF00F0202EB01110843A18FE1
:101C50005204490802EB4151626B41EA02210843F8
:101C600094F840104FF07E42490802EB416108436E
:101C7000A16B090940EA4140E968244A114000E0AB
:101C800041E00843E860286840F080702860E86818
:101C900040F08070E860FFF721FA044605E000BFDD
:101CA000FFF71CFA001B022821D828688001F7D50D
:101CB00027E02868800124D4286840F080702860DC
:101CC000E86840F08070E860FFF708FA044604E036
:101CD000FFF704FA001B022809D828688001F7D50D
:101CE0000FE000BFFFF7FAF9001B022802D903201A
:101CF000BDE8F88328688001F4D4E8680449084006
:101D0000E8600020F4E70120F2E700008C809DF9F4
:101D1000FCFFEEFE10B5401EB0F1807F01D3012024
:101D200010BD4FF0E02460610F21601700F017FA3A
:101D30000020A06107202061002010BDFEE700EB1D
:101D40008100006E00F0F84070478068C0F3C0006A
:101D500070478068C0F3800070478068C0F38000DF
:101D60007047C06810F4406F01D000207047012018
:101D70007047042303EAD15310B518444369C1F3F3
:101D8000045107248C40A3438A401343436110BD90
:101D900000EB8100016E21F00041114301667047A4
:101DA00030B589B000240694079418216846089439
:101DB000FEF75AFA1B481A490425C0E9001484604A
:101DC000C460C0E90445047644760121C16180F80D
:101DD00020408462C46280F83040446380F8384018
:101DE000FEF72AFE08B172B6FEE706A90D48069472
:101DF000FEF7A2FB08B172B6FEE70B480090062082
:101E0000CDE901047F200594CDE903056946054825
:101E1000FEF710FC002801D072B6FEE709B030BD15
:101E2000000004502800002002003004FEE7FEE716
:101E3000704700002DE9F041444C05468846E068B3
:101E40000026810728680DD0E16801F00301814276
:101E500016D1A8B1E0686968C0F30210401C88423E
:101E60000ED120E0012804D0022805D0032807D194
:101E700008E02168890701E021684905002907DB9E
:101E800001265FE02168890302D421684903F5E750
:101E9000E1686A686FF00F0321F0730103EB02122F
:101EA00011430143E160206820F080602060FFF76B
:101EB00015F9074605E000BFFFF710F9C01B02281F
:101EC00037D820680001F7D4B8F1000F18D0B8F166
:101ED000010F1ED0287D4FF07E41400801EB40608D
:101EE000A96840EA01202169194A1140084320618C
:101EF000206840F080602060FFF7F0F807461AE0A5
:101F0000A868E9680002090940EA41402169114ACC
:101F1000EBE7288A1049400801EB4050A96840EAE5
:101F2000012021690D4AE0E7FFF7D8F8C01B02281D
:101F300001D9032606E020680001F5D52069A969CA
:101F4000084320613046BDE8F081000000100240E7
:101F5000FF80FFF9FF80FDFF0000E0FFFF809FFF93
:101F60002DE9F0413D4C06468846E0680025810792
:101F700030680DD0E16801F00301814216D1A8B1AB
:101F8000E0687168C0F30210401C88420ED120E066
:101F9000012804D0022805D0032807D108E02168D1
:101FA000890701E021684905002907DB012551E087
:101FB0002168890302D421684903F5E7E168726862
:101FC0006FF00F0321F0730103EB02121143014381
:101FD000E160206820F080502060FFF77FF807461E
:101FE00005E000BFFFF77AF8C01B022829D8206857
:101FF0008000F7D4B8F1000F15D0307C4FF07E414F
:10200000400801EB4060B16840EA01206169144A70
:10201000114008436061206840F080502060FFF765
:102020005DF807460FE0B068F1680002090940EA70
:10203000414061690B4AEBE7FFF750F8C01B0228EB
:1020400001D9032506E020688000F5D56069716933
:10205000084360612846BDE8F0810000001002409E
:10206000FF80FFF9FF80FDFFF8B51C4D06460024F8
:10207000A86DC00002D5FFF7EDF80DE0A86D40F0A7
:102080008050A865A86D00F080500090FFF7E2F83E
:10209000A96D21F08051A965B0F5007F04D0802E94
:1020A00007D94FF003040AE0802E08D9A02E01D8EA
:1020B00004E001D1022402E0702E00D1012408487E
:1020C000016821F0070121430160006800F007006A
:1020D000A04201D00120F8BD0020F8BD0010024050
:1020E000002002407047FEF7FFBF10B596B04421B4
:1020F0006846FEF7B9F8142111A8FEF7B5F84FF4B9
:102100000070FFF773F808B172B6FEE71020009078
:1021100000240120CDE90604602008900A94684656
:10212000FFF76CFB08B172B6FEE70F20CDE9110492
:1021300013941494002111A81594FFF76BFA00284A
:1021400001D072B6FEE716B010BD0000024801686B
:1021500041F470010160704788ED00E0FEE7090777
:10216000090E002804DB00F1E02080F8001470471D
:1021700000F00F0000F1E02080F8141D704700000F
:102180002DED048B82B0FEF7B7FFFFF7AEFF2048BE
:10219000C16C41F00401C164C06C00F00400009007
:1021A000FFF7FEFD1B4C9FED1C8B9FED1D9B4FF41D
:1021B0007A751D48FEF7E8FD29461B48FEF766FDC7
:1021C0001948FEF736FC20801748FEF757FE208896
:1021D00000F0B6F953EC182B00F0C6F953EC192BAC
:1021E00000F056F800F022F800EE100A84ED030A21
:1021F000D4ED010A94ED021A70EE811AC1EE810A43
:10220000C4ED040A20EE200A84ED050AD1E700009F
:102210000010024000000020000000000000084004
:102220000000000000FEAF402800002021F0004226
:10223000A2F16052B2F5801F01F0004328BFD2F135
:102240007F6C0BD95FEA001C43EAC20242EB50707C
:1022500018BF704728BF20F001007047B2F5801FFB
:10226000BCBF184670474FEA410C1CF5001F02D254
:10227000084600F07CBA70B500F020FA0000008932
:10228000FFF7F6BF4FF00040A0F580007047000058
:102290002DE9C04130B4DFF8A0C23CEA111418BFE8
:1022A0003CEA131400F0EC8081EA03051CEA1114E7
:1022B00044EAD57418BF1CEA131500F0C780A4EBDC
:1022C00005044FF0004545EAC12145EAC32341EA30
:1022D000505143EA525304F17F74994204F500349B
:1022E0004FEAC0204FEAC22208BF904200F09C8013
:1022F0004FEA13650FF24016765D4FEA134506FB71
:1023000005F7C7F1807706FB07F74FEAD737A7FB3A
:1023100003687642C8F58038A7FB06CE38BFA8F11F
:10232000010807FB08E64FF0000EA6FB028CE6FB57
:1023300003CEDCF1000CCEF1004E38BFAEF1010E41
:10234000A6FB0C584FF000074FF00005E6FB0E8788
:10235000A1FB08C6A0FB07CE16EB0E0645F1000553
:10236000E1FB076515F1E04E7EBFA4F580345FEA1E
:1023700046066D4116F1800745F100054FEA172723
:102380004FEA066647EA0567A6F1DE46B6F1805FCA
:102390004FEA15251FD9384624F0010C05EBC4710E
:1023A000BCF1FE6F01EB0C1102D8F0BCBDE800815E
:1023B00024425CBF01F5801E9EEAC47F02D4F0BCBB
:1023C000BDE80081244238D4F0BCA1F1C041BDE891
:1023D000004100F0C1B94FEAD22242EA43524FEA2B
:1023E000D323A7FB02864FEAD02040EA415007FBE7
:1023F00003661EEA0E0F4FEAD12105FB026658BFA5
:10240000A6EB0056B6EB00564FEA520E4EEAC37EDC
:1024100018EB0E0E56EB530EBDD518EB02085E41BD
:102420007F1C55F10005B6E74FF480154FF000070B
:102430004FF000064FF00008ADE7F0BC4FF0000091
:1024400001F1C04101F00041BDE8008111EA0C1F1B
:102450000CEA131500D00CE013EA0C1F00F02580E5
:102460004FF00000F0BC81EA030101F00041BDE83B
:102470000081F0BCBDE8004181EA030100F06CB9C5
:10248000F0BCBDE8004170B500F018F9097EFC3ED3
:1024900000F007B881EA03014FF0000001F00041AD
:1024A000704781EA030100F057B9F0BCBDE8004174
:1024B0004FF0000021497047FFFDFBF9F7F5F4F2FA
:1024C000F0EEEDEBE9E8E6E4E3E1E0DEDDDBDAD8CF
:1024D000D7D5D4D3D1D0CFCDCCCBCAC8C7C6C5C42D
:1024E000C2C1C0BFBEBDBCBBBAB9B8B7B6B5B4B344
:1024F000B2B1B0AFAEADACABAAA9A8A8A7A6A5A42F
:10250000A3A3A2A1A09F9F9E9D9C9C9B9A999998F2
:102510009797969595949393929191908F8F8E8E95
:102520008D8C8C8B8B8A8989888887878685858422
:1025300084838382828181800000FF070000F87F0E
:10254000B0FA80F310FA03F10AD0C3F11D0303F5CA
:1025500080634FEA41504FEA035202EBD1217047AA
:102560004FF0000070470000DFF848C170B51CEA6A
:10257000111E1EBF1CEA13159EEA0C0F95EA0C0FE4
:1025800000F06F8081EA030423EA4C134EEAD47E04
:1025900021EA4C1141F4801143F48013AE44A1FBB5
:1025A000024CA0FB0365AEF17F7E361955EB0C059E
:1025B000A1FB034C4CF10003A0FB021C16EB0C0624
:1025C000654153F10003094218BF46F0010613F4B8
:1025D000007F0BD14FEA03314FEA0530340341EA63
:1025E000155140EA16506FF003020AE04FEAC3218A
:1025F0004FEAC520F40241EA555140EA56506FF0C7
:10260000020202EB2E4201EB025585EACE710AD09E
:102610005FEA440C18BF24F0004450F1000041F17F
:10262000000120EAD47040F2FE7C624500D270BD09
:10263000A84214BF4FF080444FF04044002E08BF22
:102640000024BEF1806FA8BFA1F1C041BDE8704079
:1026500080F282804FF0000001F1C04101F00041A2
:1026600070479EEA0C0F0CEA131518BF95EA0C0F81
:1026700006D04FF0000081EA030E0EF0004170BD5D
:1026800000F01CF88900013E00F007B800F009B81E
:102690004FEA430C5FEA5C5C08D081EA030100F07A
:1026A0005BB84FEA410C5FEA5C5CF6D14FF000008A
:1026B000014970470000FF070000F87F0EF1020E8D
:1026C0002EF0030E5EF8046B364205D4012A43EB6C
:1026D000030515F5001F12D8012841EB010C1CF56C
:1026E000001F0CD80ED14FEAD17C15F5001F0CEB62
:1026F0004C0C0CF1020C08BF4CEBD37C04E04FF007
:10270000080C01E04FEAD37C0CEB4C0526FA05F6E9
:1027100006F00706B6F1040C06D20EEB860CBDE8F7
:1027200070404CF0010C6047DFE80CF0090B02022E
:102730004FF000414FF00000A1F5002170BD194697
:102740001046012851EB010418BFD4F5001484BFD2
:10275000002001F0004170BD0808A0F500114FEA0B
:10276000310170474FF04070E1EE100A7047FF21D1
:1027700041EAD050C0057047000000000000000092
:102780000102030406070809A0860100400D0300AA
:10279000801A060000350C0040420F0080841E00A5
:1027A00000093D0000127A000024F40000366E019A
:1027B0000048E801006CDC02D82700080000002077
:1027C00028000000C401000800280008280000209C
:1027D000C8060000E00100080000000000409C4620
:1027E00000401C4600000000000000000000000047
:1027F00001000000100000000000000000093D0082
:040000050800018965
:00000001FF
