:020000040800F2
:1000000058070020890100081B0B0008690A000836
:10001000190B00088F020008850B00080000000083
:100020000000000000000000000000001F0B00089E
:1000300091020008000000001D0B0008210B0008C1
:10004000A3010008A3010008A3010008A301000800
:10005000A3010008A3010008A3010008A3010008F0
:10006000A3010008A3010008A3010008A3010008E0
:10007000A3010008A3010008A3010008A3010008D0
:10008000A3010008A3010008A3010008A3010008C0
:10009000A3010008A3010008A3010008A3010008B0
:1000A000A3010008A3010008A3010008A3010008A0
:1000B000A3010008A3010008A3010008A301000890
:1000C000A3010008A3010008A3010008A301000880
:1000D000A3010008A3010008A3010008A301000870
:1000E000A3010008A3010008A301000800F002F822
:1000F00000F03AF80AA090E8000C82448344AAF188
:100100000107DA4501D100F02FF8AFF2090EBAE885
:100110000F0013F0010F18BFFB1A43F0010318473B
:10012000940F0000B40F0000103A24BF78C878C1C3
:10013000FAD8520724BF30C830C144BF04680C60ED
:10014000704700000023002400250026103A28BF35
:1001500078C1FBD8520728BF30C148BF0B60704739
:100160001FB51FBD10B510BD00F058F81146FFF7C0
:10017000F7FF00F095FD00F076F803B4FFF7F2FF0B
:1001800003BC00F07DF8000009488047094800479B
:10019000FEE7FEE7FEE7FEE7FEE7FEE7FEE7FEE737
:1001A000FEE7FEE704480549054A064B7047000094
:1001B000830B0008ED0000085801002058070020BC
:1001C00058030020580300204FF0000200B51346EA
:1001D00094469646203922BFA0E80C50A0E80C5067
:1001E000B1F12001BFF4F7AF090728BFA0E80C5018
:1001F00048BF0CC05DF804EB890028BF40F8042B11
:1002000008BF704748BF20F8022B11F0804F18BF7D
:1002100000F8012B7047704770477047754600F033
:100220002BF8AE4605006946534620F00700854688
:1002300018B020B5FFF7B6FFBDE820404FF000062C
:100240004FF000074FF000084FF0000B21F00701BE
:10025000AC46ACE8C009ACE8C009ACE8C009ACE801
:10026000C0098D46704710B50446AFF300802046A4
:10027000BDE81040FFF781BF00487047F80000203C
:1002800001491820ABBEFEE7260002007047FEE7DA
:10029000704700002DE9F84FDFF8B8910024A9F16C
:1002A000040B23460F2709F1040AABF1040EC9E041
:1002B0000125A5402A40AA427DD1674ED1F804C04D
:1002C000ACEB0608B44532D014DCBCF1030F3AD0D5
:1002D00009DCBCF1000F2AD0BCF1010F1CD0BCF12D
:1002E000020F31D11DE0BCF1110F17D0BCF1120F7C
:1002F0002AD119E0B8F5881F19D006DCB8F5803F7F
:1003000015D0B8F5801F1FD111E0B8F5001F0ED031
:10031000B8F5041F18D10AE0CB6815E0CB681B1DA7
:1003200012E0CB6808330FE0CB680C330CE08B682D
:100330002BB1012B4FF0080303D0456104E00423E7
:1003400002E0056100E00023FF2A01D8064601E033
:1003500000F104064FEA840501D9A5F12005D6F87D
:10036000008007FA05FC28EA0C0803FA05F548EABC
:100370000508C6F800804D68ED0062D5374DAE69BE
:1003800046F00106AE61AD6924F0030605F00105F3
:100390000095334D06EB050CDCF80850A607360F28
:1003A00007FA06F825EA0805DFF8B880404503D1CA
:1003B0004FF0000817E044E0DFF8AC80404502D180
:1003C0004FF001080FE0DFF8A480404502D14FF064
:1003D000020808E0DFF89880404502D14FF003089A
:1003E00001E04FF0040808FA06F848EA0508CCF8DE
:1003F00008804D68D9F80060ED024D4601D51643DE
:1004000000E096432E604D68DAF80060AD02554674
:1004100001D5164300E096432E604D68DBF800607E
:10042000AD035D4601D5164300E096432E604D684E
:10043000DEF80060ED03754601D5164300E09643F3
:100440002E60641C0D682A46E5407FF431AFBDE89C
:10045000F88F000008040140000011100010024055
:100460000000014000080140000C01400010014064
:10047000001401408068084000D0012070470AB194
:10048000016170470904FBE701488068704700007C
:100490005000002002488168027811448160704752
:1004A00050000020074810B5016841F010010160BC
:1004B000032000F067F80F2000F006F800F024F8A1
:1004C000002010BD0020024070B50D4D04464FF4D1
:1004D0007A712878B1FBF0F00A490968B1FBF0F0B5
:1004E00000F0AEFA48B9102C07D200222146501E67
:1004F00000F028F800206C6070BD012070BD000085
:10050000500000205C0000200C4808B5816941F0D3
:1005100001018161816901F001010091C16941F02E
:100520008051C161C06900F080500090044841686A
:1005300021F0E06141F00071416008BD001002400F
:1005400000000140F0B40E4B1B680C46C3F30223BD
:10055000C3F10705042D00D90425191D072901D26F
:10056000002300E0DB1E012606FA05F1491E2140AA
:1005700099409E40761E16403143F0BC00F003BB0C
:100580000CED00E0064900F0070208684FF6FF0393
:10059000184040EA0220034A1043086070470000F8
:1005A0000CED00E00000FA052DE9F0470F460500CC
:1005B00061D0434E306800F00700B84209D230687D
:1005C00020F0070038433060306800F00700B84280
:1005D00051D128683B4C810712D5400703D560688C
:1005E00040F4E06060602878000703D5606840F45C
:1005F000605060606068A96820F0F00008436060A7
:100600002878C00728D06868012810D021680228FF
:1006100010D0890700292EDA616821F00301014317
:100620006160FFF731FF804641F288390DE02168B3
:100630008903EFE78901EDE7FFF726FFA0EB08014B
:10064000494502D90320BDE8F0876068696800F079
:100650000C00B0EB810FEFD1306800F00700B8421A
:100660000BD9306820F0070038433060306800F064
:100670000700B84201D00120E5E72878400705D5FA
:100680006068E96820F4E06008436060287800074B
:1006900006D56068296920F4605040EAC1006060B6
:1006A00000F018F86168084AC1F30311515CC840B2
:1006B0000649086006480068FFF706FF0020C2E709
:1006C0000020024000100240A21000085C00002040
:1006D000540000200E4A51680E4801F00C03042B10
:1006E00011D0082B0FD10C48C1F38343C903C05C60
:1006F0000AD55168084AC1F34041921E515C054A2F
:100700005043B0FBF1F07047044948437047000084
:100710000010024000127A009210000800093D000B
:100720002DE9F84F040070D02078C04DC00749D0A3
:100730006868C0F38100012807D06868C0F38100B1
:10074000022809D16868C00306D52868800339D516
:1007500060680028E7D035E06068B0F5803F0BD0D6
:1007600010B1B0F5A02F11D0286820F48030286097
:10077000286820F4802002E0286840F48030286057
:10078000606890B1FFF780FE06460AE0286840F4F2
:1007900080202860F0E700BFFFF776FE801B64280A
:1007A00073D828688003F7D50CE0FFF76DFE064686
:1007B00005E000BFFFF768FE801B6428F0D82868BA
:1007C0008003F7D420789A4E80074FF001094FF04C
:1007D000000839D5686810F00C0F07D06868C0F3BE
:1007E0008100022809D16868C00306D42868800700
:1007F00014D52069012808D110E02069B0B1C6F8ED
:100800000090FFF741FE074605E00AE1FFF73CFED6
:10081000C01B0228C4D828688007F7D528686169FA
:1008200020F0F80040EAC10028600DE0C6F8008022
:10083000FFF72AFE074604E0FFF726FEC01B02284A
:1008400023D828688007F7D4207800072CD579486A
:10085000A169D9B1C0F80090FFF716FE074604E081
:10086000FFF712FEC01B02280FD8686A8007F7D571
:1008700071484FF4FA510068B0FBF1F0009000BFEE
:100880000098411E0091FAD20EE080E0C0F800808E
:10089000FFF7FAFD074604E0FFF7F6FDC01B02284C
:1008A00075D8686A8007F7D42078400760D5E86972
:1008B0000027C00008D4E86940F08050E861E8698A
:1008C000012700F0805000905C480168C90513D4EE
:1008D0000168834641F480710160FFF7D5FD8246CF
:1008E00006E000BFFFF7D0FDA0EB0A0064284ED859
:1008F000DBF80000C005F5D5E06801280AD008B192
:10090000052813D0286A20F001002862286A20F008
:10091000040002E0286A40F001002862E06841F229
:10092000883B98B1FFF7B0FD82460BE0286A40F0A3
:1009300004002862EEE700BFFFF7A6FDA0EB0A0166
:1009400059455AD8286A8007F6D50CE0FFF79CFD78
:10095000824605E0FFF798FDA0EB0A0159454CD807
:10096000286A8007F6D41FB1E86920F08050E8615A
:10097000E06988B36968C1F38101022944D0022883
:10098000C6F8608004D0FFF77FFD044638E034E00D
:10099000FFF77AFD074604E0FFF776FDC01B02284B
:1009A0002BD828688001F7D4206AB0F5803F05D1A4
:1009B0006868A16820F4003008436860D4E9080141
:1009C0000843696821F4741108436860C6F86090B0
:1009D000FFF75AFD044606E025E000BFFFF754FD8F
:1009E000001B022809D828688001F7D51BE000BF4A
:1009F000FFF74AFD001B022802D90320BDE8F88F4B
:100A000028688001F4D40EE00128F7D06868226AD3
:100A100000F48031914204D1616A00F47010884280
:100A200001D00120EAE70020E8E7000000100240C2
:100A300000004242800442425C00002000700040FE
:100A400010B5401EB0F1807F01D3012010BD4FF0E2
:100A5000E02460610F21601700F095F80020A0618C
:100A600007202061002010BDFEE700002DE9F043C3
:100A700085B0002425480094019402940394816970
:100A800041F020018161816901F0200104918169B7
:100A900041F004018161816901F0040104918169DF
:100AA00041F0080181618069DFF8648000F008008E
:100AB0004FF470760490002231464046FFF7DFFC89
:100AC000DFF850904FF60347002239464846FFF7BB
:100AD000D6FC202001258DE8310069464046FFF70D
:100AE000D9FBCDE900650226CDE9024669464046BC
:100AF000FFF7D0FB00970396CDE9015469464846BD
:100B0000FFF7C8FB05B0BDE8F0830000001002400D
:100B100000080140000C0140FEE7FEE77047704707
:100B2000FFF7B8BC30B58FB028216846FFF74CFB03
:100B300014210AA8FFF748FB01210804CDE90010A1
:100B40000024029402250491CDE907504FF4E010EF
:100B500009906846FFF7E4FD08B172B6FEE70F2082
:100B6000CDE90A054FF48060CDE90C4002210AA8C6
:100B70000E94FFF719FD002801D072B6FEE70FB002
:100B800030BD7047FEE70907090E002804DB00F1BD
:100B9000E02080F80014704700F00F0000F1E02022
:100BA00080F8141D704770477047000008480178AE
:100BB00041B1012908D0022908D0032901D100211F
:100BC000017070470121FBE70221F9E70321F7E7F4
:100BD00000000020704770B5044681880068FFF768
:100BE00049FC217A01260025814205D02072FFF7B9
:100BF0004BFCE060667202E0607A012808D1FFF7E2
:100C000043FCE168401A0F2802D96572207AA0716E
:100C1000A079E179884210D0F8B1FFF735FC21695D
:100C2000401AB0F57A7F02D82046FFF7BDFF204674
:100C3000FFF7D0FF2575A079E071207D01280BD149
:100C4000FFF722FC2169401A40F6B831884203D9E7
:100C50002046FFF7A8FF257570BD2046FFF7A6FFC9
:100C6000FFF712FC20612675E5E701608280012113
:100C70008171C171017270470848007838B101284C
:100C800007D0022807D0032807D100F069B900F087
:100C900001B900F0B1B800F015B9704700000020AC
:100CA000FFF700FC202216491648FFF7DEFF164A20
:100CB000144802F11A01183000F028F8124A1148BD
:100CC000921D02F12001383000F020F80E4A0D4844
:100CD0000C3202F12601583000F018F80A4A09488F
:100CE000123202F12C01783000F010F8FFF71AFFF1
:100CF000FFF7BCFE0348FFF76EFFFFF7BDFFF9E704
:100D000000080140600000200600002010B50446E5
:100D100008682060486860608868A0601088A081CA
:100D20005088E081908820820020E074062020779F
:100D3000FFF7AAFB6061FFF7A7FBA06110BD0000F1
:100D400010B50446062909D00120E074072951D2C4
:100D5000DFE801F0070B0F1E2F3847000020E0747A
:100D60003FE0A189012220683EE0A189002220689D
:100D700022E0A18900222068FFF781FBE18901229E
:100D8000D4F80400FFF77BFB218A0022A0680CE066
:100D9000A18901222068FFF772FBE18901226068C6
:100DA000FFF76DFB218AA0680122BDE81040FFF724
:100DB00066BBA18901222068FFF761FBE18900225F
:100DC0006068EDE7A18901222068FFF758FBE189FF
:100DD00001226068FFF753FB218A0022A068FFF719
:100DE0004EFBA18900222068FFF749FBE189002220
:100DF0006068C7E710BD000070B5FFF745FB234DE5
:100E00006969401AB0F5967F33D3214C6078082881
:100E10000CD2DFE800F004061416181C2024002170
:100E20001EE0012118E000BFFFF78AFF6078082864
:100E30001CD2DFE800F017191F21232527290221E2
:100E400006E0032100E0062110486030ECE70621AF
:100E50000E484030E8E706210C482030E4E7062140
:100E60000A48E1E7012000E002206070FFF70CFB78
:100E7000686170BD0320F8E70420F6E70520F4E779
:100E80000620F2E70720F0E70020EEE778000020D8
:100E90000000002010B506210948FFF751FF08485F
:100EA00006212030FFF74CFF054806214030FFF7B0
:100EB00047FF03480621BDE810406030FFF740BF00
:100EC0007800002070B5FFF7DFFA234D6969401AFA
:100ED000B0F5FA7F37D306212846FFF731FF062108
:100EE00005F12000FFF72CFF062105F14000FFF778
:100EF00027FF062105F16000FFF722FF174CA178BC
:100F0000052911D82846FFF71BFFA17805F120001D
:100F1000FFF716FFA17805F14000FFF711FFA17858
:100F200005F16000FFF70CFFA078062808D2DFE883
:100F300000F003050B110F0D012000E00220A0704E
:100F4000FFF7A2FA686170BD0520F8E70420F6E714
:100F50000320F4E70020F2E77800002000000020E2
:100F600070B5FFF791FA3D4D6969401AB0F5FA7F07
:100F700073D30621A5F14000FFF7E2FE0621A5F19B
:100F80002000FFF7DDFE06212846FFF7D9FE0621E7
:100F900005F12000FFF7D4FE314CE07830B1012894
:100FA00017D002282FD0032825D133E02B48062163
:100FB0004038FFF7C5FE294821794038FFF7C0FEC9
:100FC000264806212038FFF7BBFE24482179203827
:100FD0000FE0224806212038FFF7B2FE1F48217992
:100FE0002038FFF7ADFE06211C48FFF7A9FE217946
:100FF0001A48FFF7A5FE207906282BD2DFE800F07B
:101000001D1F2228262406211448FFF799FE217966
:10101000124807E0114806214038FFF791FE0F48BB
:1010200021794038FFF78CFE0C4806212030FFF76D
:1010300087FE0A4821792030DBE7012000E002200A
:10104000207107E00520FBE70420F9E70320F7E71C
:1010500000F008F8FFF718FA686170BDB8000020CA
:1010600000000020094800210171C27832B1012A34
:1010700006D0022A06D0032A06D104E0012102E0AC
:10108000022100E00321C170704700000000002031
:10109000010202030405060708090A0B0C0D0E0FD6
:1010A0001010000000000000000001020304060709
:1010B00008090000D41000080000002060000000B3
:1010C000280100083411000860000020F806000024
:1010D00044010008000000000000001000040008A7
:1010E000020000200040008080000100400000015C
:1010F00000020000000C0140000C0140000C014007
:10110000000C0140000C0140000C0140000C0140AB
:1011100000080140000C01400008014000080140A7
:101120000008014001000000100000000000000065
:0411300000127A002F
:04000005080000ED02
:00000001FF
